:020000040001F9
:10C00000B04D002005C501000DC501000FC50100A0
:10C0100011C5010013C5010015C501000000000095
:10C0200000000000000000000000000017C5010033
:10C0300019C50100000000001BC501001DC501005D
:10C040001FC501001FC5010069D101001FC5010006
:10C050001FC501001FC5010015C8010071CA0100FC
:10C060001FC501001FC501001FC501001FC501003C
:10C070001FC501001FC501001FC501001FC501002C
:10C080001FC501003DCA01001FC501001FC50100F9
:10C09000E5CE01001FC50100EDCE01001FC5010066
:10C0A0001FC501001FC501001FC501001FC50100FC
:10C0B0001FC501001FC501000000000000000000B6
:10C0C0001FC501001FC501001FC501001FC50100DC
:10C0D0001FC501001FC501001FC5010000000000B1
:10C0E0000000000000000000000000000000000050
:10C0F0000000000000000000000000000000000040
:10C10000000000000000000000000000000000002F
:10C11000000000000000000000000000000000001F
:10C40000DFF80CD000F0BAF90048004721FE010027
:10C41000B04D0020401E00BF00BF00BF00BF00BFE6
:10C4200000BF00BF00BF00BF00BF00BF00BF00BF14
:10C4300000BF00BF00BF00BF00BF00BF00BF00BF04
:10C4400000BF00BF00BF00BF00BF00BF00BF00BFF4
:10C4500000BF00BF00BF00BF00BF00BF00BF00BFE4
:10C4600000BF00BF00BF00BF00BF00BF00BF00BFD4
:10C4700000BF00BF00BF00BF00BF00BF00BF00BFC4
:10C4800000BF00BF00BFC5D170470000401E00BF05
:10C4900000BF00BF00BF00BF00BF00BF00BF00BFA4
:10C4A00000BF00BF00BF00BF00BF00BF00BF00BF94
:10C4B00000BF00BF00BF00BF00BF00BF00BF00BF84
:10C4C00000BF00BF00BF00BF00BF00BF00BF00BF74
:10C4D00000BF00BF00BF00BF00BF00BF00BF00BF64
:10C4E00000BF00BF00BF00BF00BF00BF00BF00BF54
:10C4F00000BF00BF00BF00BF00BF00BF00BFC5D16D
:10C50000704700000648804706480047FEE7FEE700
:10C51000FEE7FEE7FEE7FEE7FEE7FEE7FEE7FEE7F3
:10C5200035CF010001C4010040EA01039B0703D09D
:10C5300009E008C9121F08C0042AFAD203E011F862
:10C54000013B00F8013B521EF9D27047D2B201E024
:10C5500000F8012B491EFBD270470022F6E710B508
:10C5600013460A4604461946FFF7F0FF204610BD61
:10C570002DE9FE4F81EA030404F0004421F000415C
:10C5800000944FF0000B23F0004350EA01045ED00A
:10C5900052EA03045BD0C3F30A54C1F30A552C4496
:10C5A000A4F2F3340194A0FB0254C1F3130141F44B
:10C5B0008011C3F3130343F4801301FB024400FB17
:10C5C000034E840A970A44EA815447EA8357A4FB3E
:10C5D000076802958D0A05FB07854FEA932C04FB3B
:10C5E0000C542705029D4FEA065847EA1637B5EB6B
:10C5F00008056EEB070C870E920E47EA811742EA98
:10C600008312A7FB0201B6EB0B0164EB00042B0DB8
:10C6100043EA0C335E1844EB1C50DA465146E7FB04
:10C620000201C5F313044FEA0B3343EA14534FEAF4
:10C630000432019C43EA0603A4F10C040294009C1A
:10C64000CDE900B400F04BF803B0BDE8F08F002056
:10C650000146F9E70EB540F2334102910021CDE9E0
:10C6600000110A460B4600F03AF803B000BDC1F3D2
:10C670000A5210B5C1F3130140F2FF3341F48011A7
:10C680009A4201DA002010BD40F233439A42A2F2EE
:10C69000334203DC524200F003F810BD904010BD5D
:10C6A000202A04DB203A21FA02F00021704721FA07
:10C6B00002F3D040C2F1200291400843194670476E
:10C6C00010B5141E73F1000408DA401C41F100019A
:10C6D00092185B411A4301D120F0010010BD2DE9F1
:10C6E000F04D92469B4611B1B1FA81F202E0B0FAE8
:10C6F00080F22032904600F053F804460F4640EA9C
:10C700000A0041EA0B0153465A46084313D011462A
:10C7100053EA010019D0C8F140025046FFF7C0FFAC
:10C7200005460E4650465946424600F039F8084341
:10C7300005D0012004E020463946BDE8F08D0020F8
:10C74000054346EAE0762C4337430A986305E40A3A
:10C75000A0EB08000022FD0A44EA47540A3002D543
:10C7600000200146E9E7010510196941DDE90845A6
:10C7700000196941BDE8F04DA2E70000064C074DE5
:10C7800006E0E06840F0010394E8070098471034A1
:10C79000AC42F6D3FFF738FED4370200F43702007C
:10C7A000202A04DB203A00FA02F100207047914071
:10C7B000C2F1200320FA03F319439040704770B58B
:10C7C0008C1810F8015B15F0070301D110F8013B3C
:10C7D0002A1106D110F8012B03E010F8016B01F8C3
:10C7E000016B5B1EF9D12B0705D40023521E0DD41B
:10C7F00001F8013BFAE710F8013BCB1A921C03E069
:10C8000013F8015B01F8015B521EF9D5A142D8D3A0
:10C81000002070BD2DE9F04F87B00027BA464FF4D5
:10C82000807006900125002412E0069804F03AF981
:10C8300040B100BF60480068284018B1069804F075
:10C8400023F92F436D000698001D80B20690641CEA
:10C85000082CEAD34FF4BE7004F024F948B14FF429
:10C86000BE7004F011F947F0004700BF534800685C
:10C870008246F8B2F8B1012500241AE005EA070063
:10C88000A8B100BF4E4850F82400C0F3042006466B
:10C8900000BF4B4850F82400C0F3014080462046BA
:10C8A00002F0FEF8814641463046C84700BF6D00A1
:10C8B000641C082CE2D307F00040002879D04FF028
:10C8C000000B00200590401E049000BF4FF0000BAD
:10C8D000002457E03B48005D0390039820F0C00619
:10C8E00038480057401C00284BD00120B040049924
:10C8F0000840002845D003984FEA9019304602F0CE
:10C9000017F9804602F0CCF80290029810B9B9F1FC
:10C91000030F35D1012000FA06F5B9F1030F02D15A
:10C9200005982843059000BF274850F82600C0F31B
:10C93000014800BF05EA0A0010B1B8F1020F05D0A6
:10C9400005EA0A00D8B9B8F1030F18D1B9F1030FFD
:10C950000FD1B8F1020F01D1032000E002200190B5
:10C960003046019904F058F80BF1010000F0FF0B7C
:10C9700000BF029818B149463046029A904700BF5E
:10C9800000BF641C042CA5D3BBF1000F0DD000BF69
:10C990000A4909680846504503D14FF0000B03E0EF
:10C9A00007E082460599049100BFBBF1000F8DD1CD
:10C9B00000BF07B0BDE8F08F0463004010050050D1
:10C9C00010650040C42700200007005000F01F023F
:10C9D00001219140024A430942F8231070470000A8
:10C9E00080E200E000F01F02012191404209920024
:10C9F00002F1E022C2F800117047000000F01F02AF
:10CA000001219140024A430942F823107047000077
:10CA100000E200E010B5002807DA4A07140E054AC4
:10CA200000F00F031B1FD45403E04A07130E024A01
:10CA3000135410BD18ED00E000E400E010B5002034
:10CA40000949086000210948C0F84411C0F848119C
:10CA5000C0F84C1100200549C1F8000102493C39D9
:10CA6000086005F0FFFD10BD4011014000100140BD
:10CA7000FEB54FF4827004F06FF838B34FF4827053
:10CA800004F074F800208DF800002D4840680190F3
:10CA900000BF2C48006880B2ADF808002848C06884
:10CAA00020B90020264981F827000AE02448C06800
:10CAB000234948600846808A08810020C86004F045
:10CAC00067F81F4801686846884700BF4FF48A70BE
:10CAD00004F042F840B14FF48A7004F047F80020A7
:10CAE000174981F827002AE01548056924E0B5FABE
:10CAF00085F64FF00040F0408543B00000F58C749F
:10CB0000204604F029F8B8B1204604F02FF801209F
:10CB10008DF80000A4F58C70C0F3C7008DF80400F8
:10CB2000A4F58C70012121EA90018DF805100448CC
:10CB300001686846884700BF002DD8D100BFFEBD00
:10CB4000D0280020347600402DE9F047044689467D
:10CB5000164600F015FB04EB4401564800EBC100FB
:10CB6000007D00F00300022827D004EB4401514867
:10CB700000EBC100D0F8108004EB44014D4800EBFD
:10CB8000C100C068A8EB0000451E002D06DA04EBCA
:10CB90004401484800EBC10080680544AE420CDD0A
:10CBA00004EB4401434800EBC100007D00F00300AA
:10CBB00010B90020BDE8F0872E460EB90020F9E735
:10CBC000002700BF04EB44013A4800EBC100D0F855
:10CBD000108004EB4401374800EBC100C068A8EBAB
:10CBE0000000451E002D06DA04EB4401314800EB3D
:10CBF000C1008068054404EB44012E4800EBC100ED
:10CC000004EB440281682B4800EBC200C068081A9C
:10CC1000A84201DD28460CE004EB4401254800EB66
:10CC2000C10004EB44028168224800EBC200C068E6
:10CC3000081A0546B54201DA284600E030460546A6
:10CC400004EB44021B4901EBC20104EB44034A68B4
:10CC5000184901EBC301C96850182A464946FFF735
:10CC600063FC2F44A944761B04EB4401114800EBFC
:10CC7000C100C068411904EB44020E4800EBC20039
:10CC8000C16004EB44010B4800EBC100C16804EB38
:10CC90004402084800EBC2008068814206D10021AE
:10CCA00004EB4402034800EBC200C160002E89D1AE
:10CCB00038467FE7F821002070B505460C4620462F
:10CCC00000F07FFB0646324621462846FFF73CFF30
:10CCD00070BD0FB438B5044606A800906A462046D9
:10CCE000059900F003F838BC5DF814FB2DE9F04F0E
:10CCF00099B081460D46144603A814904020159023
:10CD000000201690CDF86090179000BF15F8016BC9
:10CD100006B9D4E0252E73D1002700BF2E78232E2C
:10CD200012D02B2E0CD02D2E02D0302E10D103E09D
:10CD300047F001076D1C0CE047F002076D1C08E08E
:10CD400047F004076D1C04E047F008076D1C00E085
:10CD500001E000BFE2E74FF0000800BF2E78302E60
:10CD600001DB392E00DD07E06D1CA6F1300008EB79
:10CD7000880100EB4108F1E700BF002013902E78F6
:10CD80002E2E12D16D1C00BF2E78302E01DB392ED5
:10CD900000DD09E06D1CA6F13000139901EB810163
:10CDA00000EB41001390EFE700BF2E7800BF6C2E20
:10CDB00001D0682E02D115F8016B00E000E0F6E723
:10CDC00000BF702E5BD008DC252E68D0582E35D0E1
:10CDD000632E09D0642E67D113E0732E3CD0752EDC
:10CDE0001DD0782E60D128E02168081D2060D1F880
:10CDF00000A00AF0FF0B594614A800F0B1FA53E066
:10CE000055E02168081D2060D1F800A0CDE9008719
:10CE10000A22514614A8139B00F0B3F944E021689C
:10CE2000081D2060D1F800A0CDE900870A225146F4
:10CE300014A8139B00F01AFA36E000BF2168081D01
:10CE40002060D1F800A0CDE900871022514614A837
:10CE5000139B00F00BFA27E02168081D2060D1F831
:10CE600000B000BF1BF8016B06B906E0314614A8FC
:10CE700000F076FA17980028F4DA00BF14E0216871
:10CE8000081D2060D1F800A0002008210B461022C8
:10CE9000CDE90010514614A800F0E8F904E025217E
:10CEA00014A800F05DFA00BF00BF6D1C03E031461E
:10CEB00014A800F055FA17980028BFF627AF00BF56
:10CEC000179800280ADD169820B103A94846169A3B
:10CED000FFF73AFEDDE9161008441790179819B0CD
:10CEE000BDE8F08F10B505F0C7FA10BD70B50B485E
:10CEF000006880B1094800688047044600BF2546A5
:10CF00003DB100BF064A4FF4B371284600F0A2FBC2
:10CF100000BF00BF01E002F0BDFD70BD5C2200203B
:10CF20007C37020001480249086070470090D00336
:10CF30007422002010B502F03BFA10B17D487E4902
:10CF4000486702F04DFA28B17C480068C0F34230CF
:10CF50007B49086002F06EFA28B17A48006820F038
:10CF600080707849086002F07DFA48B10020764967
:10CF700008604FF08041C1F810017149091F086035
:10CF800002F09AFA18B103206D496431086002F08A
:10CF9000ABFA68B105206D49086001206B49783112
:10CFA000086000206949083108603F20091F0860B7
:10CFB00002F0B2FA002855D065480068654908605B
:10CFC0006348001D0068091D08606148083000685A
:10CFD000091D08605E480C300068091D08605C4847
:10CFE00010300068091D0860594814300068091D98
:10CFF0000860574818300068564920310860544886
:10D000001C300068091D0860514820300068091D67
:10D0100008604F4824300068091D08604C482830DB
:10D020000068091D08604A482C300068091D086026
:10D030004748303000684749403108604448343040
:10D040000068091D0860424838300068091D086002
:10D050003F483C300068091D08603D48403000688A
:10D06000091D086037487438006840F4700035497D
:10D070007439086000BF00BF00BFBFF34F8F00BF0F
:10D0800000BF00BF00BF00BF00BFBFF36F8F00BF76
:10D0900000BF00BF3048006800F0004030B92E48A3
:10D0A000001D006800F00040002840D001202B49FE
:10D0B000086000BF2A4800680028FBD015202649D8
:10D0C000086000BF264800680028FBD015212248D0
:10D0D000001D016000BF224800680028FBD000202E
:10D0E0001E49086000BF1E4800680028FBD000BF32
:10D0F00000BF00BF00BF00BFBFF34F8F00BF00BF26
:10D1000000BF1048F038006800F4E060154908439B
:10D11000001D0C49F039086000BF00BF00BFBFF31D
:10D120004F8F00BF00BF00BF00BF00BFFDE7FFF78C
:10D13000F9FE10BD0DF0ADBA00C00740440200106A
:10D140003C050040FCED00E00C01004010560040A2
:10D150000404001020C500400012001004E5014046
:10D1600000E401400000FA0510B50448007F10B14A
:10D1700005F0EEFC01E005F03BFC10BDCC270020E3
:10D1800070472DE9FC5F07460E4692469846DDE95A
:10D190000C45002E01DA704200E0304683464FF025
:10D1A000010903E0BBFBFAFB09F10109D345F9D200
:10D1B000C84500D9C14634B1002E03DB05F0040098
:10D1C000042800D1641E05F0020010B1B8F1000F70
:10D1D00012D005F0010078B974B108E0202138467A
:10D1E00000F0BEF8F868002801DABDE8FC9F1CB129
:10D1F0002046641E4845F1D8002E08DA76422D21DB
:10D20000384600F0ADF8F86800280CDAEDE705F0D4
:10D210000400042807D12B21384600F0A1F8F86853
:10D22000002800DAE1E705F00200022814D105F039
:10D23000010088B9B8F1000F0ED16CB107E03021C0
:10D24000384600F08DF8F868002800DACDE71CB108
:10D250002046641E4845F2D8434652463146384679
:10D26000CDE9004500F002F800BFBEE72DE9FE4F12
:10D2700081460F4614469846DDE90C5B012601976E
:10D28000B24605E00198B0FBF4F001900AF1010A02
:10D290000198A042F6D2D04500D9C2460BF0010059
:10D2A000E0B9DDB10BF00200022805D1B8F1000FA2
:10D2B00002D13020009001E02020009009E0484693
:10D2C000009900F04DF8D9F80C00002801DABDE80B
:10D2D000FE8F1DB128466D1E5045F0D800E0664314
:10D2E000B7FBF6F0A04201D3012000E00020414648
:10D2F000A8F10108012901DD012100E00021084316
:10D300000028ECD100BFB7FBF6F00290029800FBBA
:10D310001677124A0298115C484600F021F8D9F8B5
:10D320000C00002800DA03E0B6FBF4F6002EEAD188
:10D3300000BF0BF0010078B175B108E0202148462C
:10D3400000F00EF8D9F80C00002800DABFE71DB194
:10D3500028466D1E5045F1D800BFB8E7E82F0200FF
:10D3600070B504460E46A568681C6168814206DBFC
:10D3700020684655681CA060E068401CE060D4E965
:10D38000011088420DD1A26821682069FFF7DCFBFB
:10D39000A168884203D04FF0FF30E06001E0002038
:10D3A000A06070BD02E008C8121F08C1002AFAD1AF
:10D3B00070477047002001E001C1121F002AFBD115
:10D3C00070470146002209B90020704700BF087865
:10D3D00000B902E0521C491CF9E700BF1046F4E70F
:10D3E0002DE9FC4104468846164600253788002072
:10D3F0003080606B68B1616B08783B4632464146CD
:10D4000004F048FC054600BF15B12846BDE8FC8184
:10D4100000BF206B58B13B4632464146206B05F0B9
:10D42000C7F9054600BF0DB12846EFE700BF94F8E5
:10D430002E0060B194F82E003B463246414602F081
:10D44000E7FB054600BF0DB12846DFE700BF94F8B3
:10D450002D0050B13A463146404601F0FAF80546F3
:10D4600000BF0DB12846D1E700BFA07850B13A46C1
:10D470003146404600F0FEFA054600BF0DB1284691
:10D48000C4E700BFE07860B1E17848B23B4632467D
:10D49000414602F0ADF8054600BF0DB12846B5E79C
:10D4A00000BF606868B1616891F900003B46324690
:10D4B000414605F0D3F9054600BF0DB12846A5E762
:10D4C00000BF208900280EDD43460622022104F118
:10D4D0000800CDE9006705F069FC054600BF0DB105
:10D4E000284693E700BF208A00280EDD4346072226
:10D4F000032104F11000CDE9006705F057FC054653
:10D5000000BF0DB1284681E700BF208B00280EDD4B
:10D5100043461522142104F11800CDE9006705F0F7
:10D5200045FC054600BF0DB128466FE700BF206AE5
:10D5300058B13B4632464146206A01F0CCFD0546D3
:10D5400000BF0DB1284661E700BF606A58B13B4695
:10D5500032464146606A02F0D5FC054600BF0DB177
:10D56000284653E700BF94F82C0000280BDD3B460B
:10D5700032464146204604F0A8FB054600BF0DB1E7
:10D58000284643E700BF207858B13B463246414623
:10D59000204602F077FD054600BF0DB1284635E76D
:10D5A00000BF284632E70146C87800F0040008B9F9
:10D5B000072070470020FCE730B599B038210BA850
:10D5C000FEF7CBFF02208DF82C0006208DF82F00EF
:10D5D000242102A8FEF7C1FF01208DF814004FF4AA
:10D5E00096700690002007900A4B02AA0146009010
:10D5F0000BA800F00DFC044600BF25463DB100BF5E
:10D6000005A24FF4E671284600F024F800BF00BFE1
:10D6100019B030BD4B0C02002E2E5C2E2E5C2E2E2F
:10D620005C6D61696E2E630070B504460D4616464A
:10D6300000BF4FF4F010064908600020091F086081
:10D6400000BF32462946204600F014F870BD0000A5
:10D650000C050050FEB504460E461546B0B2ADF8B6
:10D660000000019502946A46002144F20100FFF790
:10D67000DBFFFEBD18B5012300939DF800301E4B63
:10D68000186059609A606FF48043034463B1012BC2
:10D6900019D1194BDA60DB681B88174CA36123464C
:10D6A000DB685B68E3610EE0134B1A611B699B68E2
:10D6B000114C636123461B691B88A36123461B69C8
:10D6C0005B68E36100BF00BF0B4B1B680A4B5B68E4
:10D6D000094B9B68084BDB68074B1B69064B5B6972
:10D6E000054B9B69044BDB6972B600BF9DF80030A7
:10D6F000002BFBD162B618BDFC28002070B5044693
:10D700000D46204601F05DFF28B12946204601F074
:10D7100047FF002070BD0520FCE7034609B90E2035
:10D72000704712B1501E104008B10920F8E7196087
:10D73000501E988000209860D86000BFF0E770B558
:10D7400004460D46204601F03CFFA188884205D8DA
:10D750002946204601F043FF002070BD0420FCE76D
:10D76000F8B505460C462778A06800EB400006494E
:10D7700051F820600548006800902A46394604F1B7
:10D7800008002369B047F8BDB8280020F020002029
:10D7900010B504460748007800EB80020548001DDC
:10D7A00000EB82012046FFF7DBFF042004F00AFBB8
:10D7B00010BD0000EC27002010B503460C4600BF4A
:10D7C0000B48006808B9082010BD00BF0AB907203F
:10D7D000FAE70BB90720F7E71868007C08B10820C2
:10D7E000F2E71968002008744C744A6100BFEBE747
:10D7F000FC2000202DE9F04180460E4614461F46CD
:10D80000204600F0030109B9012100E0002111B90F
:10D810000720BDE8F08124B900201D4908600720D9
:10D82000F7E704F0B9F81B48076003201A490870AD
:10D8300017480460183400250DE01549096801EB0C
:10D84000C5000021017041708670446006EB4601FE
:10D8500004EBC1046D1C032DEFDB00200F490860B1
:10D860000F4908700F4908701420FFF7AFF8062120
:10D870001420FFF7CFF81420FFF7B4F8404604F067
:10D8800061F804F059F8084908600020C1E7000079
:10D89000FC20002014210020F8200020002100207E
:10D8A0001021002011210020042100202DE9F8433F
:10D8B00004460D461746264600BF1148006810B9B9
:10D8C0000820BDE8F88300BF0CB90820F9E7052D52
:10D8D00001D20720F5E7706908B90820F1E7707CEC
:10D8E000012801D1284600E00020804605F018FA02
:10D8F000814643462A463146009704F065FEE0E73C
:10D90000FC20002070B50446254600BF0948006889
:10D9100008B9082070BD00BF0CB1686908B90820BB
:10D92000F8E70020287405F0FBF90646294604F0C4
:10D9300079FEEFE7FC20002070B504460A4801F0AC
:10D940003BFE09498988884208D10121074802F035
:10D950005DFE05460DB1052070BD00BF21460248A1
:10D96000FFF7CCFEF8E700007429002021210020F9
:10D970002DE9F04188B004460D46174698462948DF
:10D9800007601DB9072008B0BDE8F081A88882B201
:10D9900025482968FFF7C1FE064600BF0EB1304694
:10D9A000F1E700BFA88982B22048A968FFF7B5FE59
:10D9B000064600BF0EB13046E5E700BF20221C49F5
:10D9C0006846FEF7B1FDA0680690207908B10120F5
:10D9D00000E000208DF814008DF81C80607908B1FB
:10D9E0000E2000E000208DF81500E0780290A0786D
:10D9F000039020780190607800900E49684602F00C
:10DA000093FD064600BF0EB13046BCE700BF9DF84F
:10DA10001D0008B902F052FE0121074802F0F6FD90
:10DA2000B1E700001C210020742900208429002077
:10DA3000C82F0200312902002121002070B50446C0
:10DA400021460A48FFF77BFE054665B902F09CFFB8
:10DA500048B907490548FFF751FE20B9012104489C
:10DA600002F0F0FE0546284670BD00008429002023
:10DA700020210020F8B505460C4617462088001DD9
:10DA8000B84201D90C20F8BD684679DF064600BFD0
:10DA90000EB13046F7E700BF032021886854208884
:10DAA000401C20801920218868542088401C208038
:10DAB00020884119BDF8000005F0E0F821880844ED
:10DAC00020800020DFE7000070B5002241F69A11A7
:10DAD0001C480068FFF7EAFE044600BF25463DB13A
:10DAE00000BF19A240F22F112846FFF7B3FD00BF77
:10DAF00000BF00224FF4804117480068FFF7D6FEB0
:10DB0000044600BF25463DB100BF0FA24FF49971F6
:10DB10002846FFF79FFD00BF00BF002242F266616A
:10DB20000E480068FFF7C2FE044600BF25463DB11F
:10DB300000BF05A240F235112846FFF78BFD00BF5C
:10DB400000BF70BDE82E02002E2E5C2E2E5C2E2E05
:10DB50005C6D61696E2E6300EC2E0200F02E0200F7
:10DB600010B50446206802F081FF206802F047FFEC
:10DB70000021606802F036FF2548007F18B3A069D5
:10DB80002449086000BF607D217D40EA0102224BEC
:10DB9000C3F86C2500BF1846D4E9001203F04EF814
:10DBA000207D012832D10021A06802F01BFFE0682F
:10DBB00002F05CFFE06802F022FF1748D4E902217E
:10DBC00003F028F822E0A0691249086000BF607DD8
:10DBD000217D40EA0102104BC3F86C2500BF1846B6
:10DBE000D4E9001203F001F8207D01280ED10021B4
:10DBF000A06802F0F7FEE06802F038FFE06802F08B
:10DC0000FEFE0548D4E9022102F0D8FF10BD000055
:10DC1000CC270020242500400020004030B591B0E2
:10DC2000054600BF9DF8240020F00F00401C8DF831
:10DC300024009DF8240020F0F00010308DF824001E
:10DC400000BF00BF9DF8250020F00F00401C8DF89C
:10DC500025009DF8250020F0F00010308DF82500FB
:10DC600000BF9DF8260020F00600801C8DF82600DD
:10DC70001C210AA8FEF771FC9DF8280020F0020084
:10DC8000801C8DF828009DF8280020F0100010302E
:10DC90008DF8280009A80F9000BF01208DF80E0014
:10DCA00042F61920ADF80C0000BF0020029000BF22
:10DCB0009DF8090020F00F008DF809009DF809007B
:10DCC00020F0F0008DF8090000BF00BF9DF80800AB
:10DCD00020F00F00401C8DF808009DF8080020F08F
:10DCE000F00010308DF8080000BF9DF80A0020F009
:10DCF0000600801C8DF80A0002F006FC044600BFF6
:10DD000074B113A10020FEF7D7FF792312A217499F
:10DD100000200094FEF7DDFF15A10020FEF7CCFFE8
:10DD200000BF142104A8FEF718FC03A8049002A861
:10DD300005900220ADF81800ADF81C000E480890C0
:10DD40002888AB1C04AA0AA9A2DF11B030BD0000CC
:10DD50001B5B313B33316D002E2E5C2E2E5C2E2E44
:10DD60005C626C655F6261732E630000F82F0200D5
:10DD70001B5B323B33376D00882000202DE9F041DA
:10DD800092B080460D461F2011901090B8F1000F00
:10DD900017D04046FFF707FC044600BF1CB12046E1
:10DDA00012B0BDE8F08100BF11AA08A94046FFF7F4
:10DDB00017FB044600BF0CB12046F1E700BF08AED8
:10DDC00002E0002600201190ADB1284604F0EEF8E4
:10DDD000044600BF0CB12046E2E700BF10AA694626
:10DDE0002846FFF7FDFA044600BF0CB12046D7E7EE
:10DDF00000BF6F4602E0002700201090BDF84000F1
:10DE0000C3B2BDF84400C1B23A46304672DFC7E73C
:10DE10002DE9F04704460F4615461E46DDF82080E2
:10DE200000BF14B90E20BDE8F08700BF00BF0DB9D8
:10DE30000E20F8E700BF00204649087046480660FB
:10DE40004648C0F80080242229464548FEF76CFB6E
:10DE500000F03EF94348444908604448886038214E
:10DE60004348FEF77AFB207841490870A078887013
:10DE7000E078C870607848700846D4E90412C0E9B8
:10DE80000412D4E90212C0E90212D4E90612C0E970
:10DE90000612606AD8B13748354948623649816010
:10DEA000606A00883249496A0880606A808830491F
:10DEB000496A8880002005E0616A8968095C2E4A09
:10DEC0001154401C2A49496A89888142F4D8A06AC1
:10DED00020B32A492A488160254988622749244875
:10DEE000806A8160A06A80882149896A8880A06AE6
:10DEF00000881F49896A0880002005E0A16A8968B6
:10DF0000095C1E4A1154401C1949896A898881425A
:10DF1000F4D894F82C00164981F82C00206A58B1E6
:10DF2000184813490862206A4088096A4880206AB4
:10DF300000880F49096A0880606820B112480C49BE
:10DF400048606068486039460948FFF717FF814616
:10DF5000484668E7AC200020A4200020A82000202C
:10DF60006C260020A026002090260020C02600203D
:10DF700034260020E0260020EC2600201827002070
:10DF80000C270020B0200020B420002070B50446EB
:10DF90002088102804D0112809D01B2863D11BE049
:10DFA000A07D012802D1A088304908805CE00020D3
:10DFB0002F490870A0882D49098888420BD101207B
:10DFC00000F08EF8054635B12A48006818B1284699
:10DFD00028490968884747E0207A002842D1264826
:10DFE0000078012806D0022811D003281CD004286C
:10DFF00036D129E0022000F073F8054635B11D48FE
:10E00000006818B128461B490968884729E00320A1
:10E0100000F066F8054635B11648006818B1284684
:10E020001449096888471CE003201449087004203B
:10E0300000F056F8054635B10E48006818B128467C
:10E040000C49096888470CE000200C4908700C480E
:10E05000006820B10846007809490968884700E04F
:10E0600000BF00BF00E000BF00BF70BDB6200020B1
:10E07000AD200020A8200020AC200020A0200020FF
:10E08000A420002070B504460025022C02D0032CE9
:10E0900015D100E000BF0B48007878B10020094995
:10E0A00008700948007800F01BF8054635B10748AC
:10E0B000006818B1284605490968884700E000BF94
:10E0C00000BF70BD98200020AC200020A8200020B8
:10E0D00002480021016081808171704799200020F1
:10E0E00030B587B005469548057001F09CFA28B117
:10E0F000012093490870002007B030BDFFF7E8FF0A
:10E100009048407818B18D48007801280DD08D488E
:10E11000807818B189480078012806D0894880782D
:10E1200088B18648007802280DD18748006838B148
:10E13000012086490870082083490968884702E061
:10E140000020824908707D480078012809D17D4867
:10E15000407818B17E4802F041FE10B9022077499C
:10E16000087076480078022809D17648807818B17E
:10E17000774802F033FE10B90320704908707148E7
:10E18000007B30B96D480078032802D104206B4928
:10E1900008706C48007E40B968480078042804D1B3
:10E1A0000020664908706B49087067480068A8B18C
:10E1B00062480078032803D06048007804280DD115
:10E1C0006048007850B16448007838B9012063494C
:10E1D000087007205C490968884702E000205F4911
:10E1E0000870182101A8FEF7B8F900208DF8040086
:10E1F00002908DF80C00049050480078012806D059
:10E20000022813D0032825D0042876D150E05048A6
:10E21000401E029001208DF804000020ADF8160089
:10E22000ADF8140001204B49087071E04848401EC9
:10E23000029001208DF804004248008980B2ADF8B8
:10E2400016004048808880B2ADF814000220414991
:10E2500008705DE03B48808A80B2ADF8160039480E
:10E26000008A80B2ADF814003D4804F034FED8B105
:10E2700034480078C0B138480078A8B902208DF839
:10E280000C003748049004203649C87000213548F6
:10E29000FFF774FD044600BF0CB120462CE700BF19
:10E2A00005202C49087002E003202A4908702FE05D
:10E2B0002448808B80B2ADF814002248008C80B2D4
:10E2C000ADF81600264804F006FEE0B11D480078BF
:10E2D000C8B121480078B0B902208DF80C00204860
:10E2E000049004201F49C87000211E48FFF746FD16
:10E2F000044600BF14B12046FEE608E000BF062039
:10E300001449087002E004201249087000E000BFC0
:10E3100000BF0A48007838B101A873DF044600BF87
:10E320000CB12046E8E600BF0748006820B1094864
:10E3300000780549096888470020DDE6AC20002008
:10E34000982000206C260020A4200020AF20002070
:10E350009A200020A0200020AD200020AE20002028
:10E36000902600203426002030B587B0054620488E
:10E37000B0F900001F490988884232D068894FF6F9
:10E38000FF7188422DD0022002900020039004905B
:10E39000059006906888ADF80C0001208DF80E00FD
:10E3A0000020ADF8100002A8059011480690688979
:10E3B00003A9A6DF0446522C12D08CB100BF74B161
:10E3C0000DA10020FEF778FCE6230DA211490020E4
:10E3D0000094FEF77EFC10A10020FEF76DFC00BF4C
:10E3E00000BF0348008803490880002007B030BD03
:10E3F0008A200020922000201B5B313B33316D00CE
:10E400002E2E5C2E2E5C2E2E5C626C655F6261731C
:10E410002E630000F82F02001B5B323B33376D0088
:10E4200038B504464FF6FF70608100BF01208DF8BB
:10E43000020041F60F00ADF8000000BF2246694619
:10E440000120A0DF05460DB1284638BD03F050FB82
:10E450002046FFF7E3FBF8E770B505460C46208839
:10E46000102804D0112807D050280BD109E02146EC
:10E47000284602F043FC06E02146284602F05EFCF6
:10E4800001E000E000BF00BF70BD000038B50546E8
:10E49000174805600121174801F084FF044600BFBA
:10E4A00074B115A10020FEF707FC8F2314A21949AF
:10E4B00000200094FEF70DFC17A10020FEF7FCFBE6
:10E4C00000BF02F021F8044600BF74B10AA1002089
:10E4D000FEF7F2FB91230AA20E4900200094FEF7FA
:10E4E000F8FB0DA10020FEF7E7FB00BF204638BD7A
:10E4F0008C200020882000201B5B313B33316D00D5
:10E500002E2E5C2E2E5C2E2E5C626C655F6261731B
:10E510002E630000F82F02001B5B323B33376D0087
:10E5200070B586B00546174B0FCB01AC0FC44EF645
:10E530000D40ADF81400A11C01A863DF044600BF24
:10E54000264636B100BF10A25A213046FFF782F8A6
:10E5500000BF00BF4FF6FF702880AA1C05A901204C
:10E56000A0DF044600BF264636B100BF06A26221E6
:10E570003046FFF76FF800BF00BF284600F0DEFA14
:10E5800006B070BD142F02002E2E5C2E2E5C2E2E97
:10E590005C626C655F62726F626F745F6572726FEE
:10E5A000722E630070B505461C2229461248FDF7FD
:10E5B000BBFF002011490870286850B11048296835
:10E5C0000A680260496841607ADF04463CB120462F
:10E5D00070BD0B487BDF04460CB12046F8E74FF6D0
:10E5E000FF7008490880002007490870074A002189
:10E5F0000748FFF7E1F8EBE738270020CC200020A0
:10E60000B8200020C2200020C0200020912C020051
:10E61000782F020010B504462088102806D0112853
:10E6200008D012280ED0502810D107E0204602F062
:10E6300069FB0CE0204602F085FB08E0204602F072
:10E64000A1FB04E0204602F04DFB00E000BF00BF4C
:10E6500010BD2DE9FC4105460C46174620880930BF
:10E66000B84202D90C20BDE8FC81684671DF06463D
:10E6700000BF0EB13046F6E700BF0820218868547D
:10E680002088401C20801B20218868542088401C42
:10E69000208020882844DDF801100160BDF80510B5
:10E6A00081802088801D20809DF8000018B90020FE
:10E6B0002188685402E00120218868542088401C89
:10E6C00020800020CFE7000010B504462046FFF769
:10E6D000A1FF204602F0C6FA2046FFF757FC22466B
:10E6E0000649074800F062F822460649044800F04F
:10E6F000D9F821460448FFF7AFFE10BDA422002040
:10E7000092220020B02200207822002070B586B02E
:10E7100006460D4628884FF6FF7188422DD00C2002
:10E72000059000200190029003900490A888ADF815
:10E73000040001208DF806000020ADF8080005A8AF
:10E7400003900496288801A9A6DF044643F20140FD
:10E75000844211D000BF74B109A10020FEF7ACFAC9
:10E76000872309A20E4900200094FEF7B2FA0DA1FA
:10E770000020FEF7A1FA00BF00BF06B070BD000088
:10E780001B5B313B33316D002E2E5C2E2E5C2E2E0A
:10E790005C626C655F71696B5F6366672E63000026
:10E7A000F82F02001B5B323B33376D002DE9F0413F
:10E7B00006460D4614462088102804D0112805D09E
:10E7C00050281ED106E0A08828801BE04FF6FF707D
:10E7D000288017E0E088A988884211D104F1120747
:10E7E00000BF012209A10020FEF773FA00BF3946DD
:10E7F000304603F025F829463046FFF787FF00BF73
:10E8000000E000BF00BFBDE8F08100005772206348
:10E81000666720646174610A00000000F0B585B08D
:10E8200007460D46184B0FCB8DE80F004BF2B0009A
:10E83000ADF810000DF11201684663DF044600BF19
:10E84000264636B100BF11A267213046FEF702FF0F
:10E8500000BF00BF4FF6FF702880AA1C04A901204A
:10E86000A0DF044600BF264636B100BF07A26F21D5
:10E870003046FEF7EFFE00BF00BF2946384600F0E5
:10E8800045FB05B0F0BD0000342F02002E2E5C2E9B
:10E890002E5C2E2E5C626C655F71696B5F636667D0
:10E8A0002E63000070B506460D46144620881028D9
:10E8B00004D0112805D0502815D106E0A088288062
:10E8C00012E04FF6FF7028800EE0E088A9888842A9
:10E8D00008D1A07C40B2B073E07C41B2F173304605
:10E8E00002F04CFD00E000BF00BF70BD70B586B007
:10E8F0000546194B0FCB01AC0FC44EF2CE10ADF84C
:10E900001400A11C01A863DF044600BF264636B1EF
:10E9100000BF12A290213046FEF79CFE00BF00BF50
:10E920004FF6FF702880AA1C05A90120A0DF04462D
:10E9300000BF264636B100BF08A298213046FEF738
:10E9400089FE00BF00BF284603F0BEFA284601F04A
:10E9500015FB06B070BD0000642F02002E2E5C2E49
:10E960002E5C2E2E5C626C655F71696B5F6D6F74DF
:10E970006F722E630000000070B586B037480068E3
:10E98000059000BF00234822354905A803F05EFA30
:10E99000054600BF2E463EB100BF32A24FF4D071F3
:10E9A0003046FEF757FE00BF00BF00BF6A46012198
:10E9B000002003F02BFA044600BF25463DB100BFFE
:10E9C00028A24FF4D3712846FEF744FE00BF00BFD3
:10E9D00000BF284E304603F0E7F8044600BF254646
:10E9E0003DB100BF1FA240F2A9112846FEF732FE3A
:10E9F00000BF00BF00BF684603F0FAF9044600BF3D
:10EA000025463DB100BF17A240F2AD112846FEF7E2
:10EA100021FE00BF00BF184803F0DEF9044600BF26
:10EA200025463DB100BF0FA240F2B1112846FEF7C6
:10EA300011FE00BF00BF114803F03AFA044600BFC0
:10EA400025463DB100BF07A240F2B5112846FEF7AA
:10EA500001FE00BF00BF06B070BD0000F42E020032
:10EA6000EC2400202E2E5C2E2E5C2E2E5C6D616917
:10EA70006E2E6300E81F0020C9E60100F1220200AB
:10EA80004FF0FF31054A42F82010082804DBFF232D
:10EA9000A0F1080150325354704700007427002041
:10EAA0000146024850F821007047000074270020FA
:10EAB0002DE9F04F03460C464FF0FF390AB1002014
:10EAC00000E0082084460AB1082000E00C208046BF
:10EAD000614624E0154850F82100401CF0B91D465D
:10EAE0000846274616464FFA80FBDFF840A00AF199
:10EAF000300A0AF805B0DFF834A04AF820704EB9A1
:10EB00004FFA85FBA0F1080ADFF820E00EF1500E65
:10EB10000EF80AB000BF4FFA81F902E0491C4145E6
:10EB2000D8D300BF4846BDE8F08F0000742700200E
:10EB30000146014840567047A4270020F0B593B025
:10EB4000054600243A4B0FCB0EAE0FC64CF2DE004A
:10EB5000ADF84800B11C0EA863DF044600BF26468E
:10EB600036B100BF33A229213046FEF773FD00BF46
:10EB700000BF1C2107A8FDF7F0FC9DF81C0020F049
:10EB80000200801C8DF81C009DF81C0020F0100075
:10EB900010308DF81C00002006909DF81A0020F01F
:10EBA0000600801C8DF81A0000BF9DF8180020F0A8
:10EBB0000F00401C8DF818009DF8180020F0F000A0
:10EBC00010308DF8180000BF00BF9DF8190020F02C
:10EBD0000F008DF819009DF8190020F0F0008DF855
:10EBE000190000BF0227142101A8FDF7B6FC12A8E6
:10EBF000019006A802900220ADF81000ADF80C00BC
:10EC000000200090CDF814D068882B1D01AA07A918
:10EC1000A2DF044600BF264636B100BF05A2472149
:10EC20003046FEF717FD00BF00BF002013B0F0BD57
:10EC3000042F02002E2E5C2E2E5C2E2E5C626C6544
:10EC40005F62726F626F745F6572726F722E6300C3
:10EC50002DE9F84F3A48007800EB80013848001D54
:10EC600000EB8104E668A06800EB4000354901EB49
:10EC70008000B0F80890A06800EB400001EB800035
:10EC8000B0F80AA0A06800EB400001EB80004068EB
:10EC9000009002F08EF9B6FBF0F100FB116008B9AC
:10ECA000012000E000208046009809FB0A076088E8
:10ECB0003044A1884518002023490860B8F1000FAE
:10ECC00004D002F076F96188884209D0B8F1000FCB
:10ECD00003D0BD4201D1A08810B1A068032809D19A
:10ECE00002F067F9B6FBF0F018490860032003F062
:10ECF00069F822E002F05DF9A1883144B1FBF0F23D
:10ED000000FB121080081249086002F052F9B5FBAE
:10ED1000F0F100FB115008B9012000E0002083460B
:10ED2000BD4206D0BBF1000F03D1B9B2A8B203F0C7
:10ED3000F7FA022003F046F800BFBDE8F88F0000A4
:10ED4000EC270020B8280020E0200020E42000204C
:10ED5000DC20002010B50848007800EB8001064850
:10ED6000001D00EB81042078042802D000F05CF83C
:10ED700001E003F04DFA10BDEC27002010B50F485C
:10ED8000007800EB80010D48001D00EB81046088D5
:10ED90000B4908602078012804D0032805D00428F6
:10EDA00009D105E003F034FA06E0FFF751FF03E074
:10EDB00003F06AFF00E000BF00BF10BDEC27002099
:10EDC000F020002010B50348407808B1FFF7D6FFC7
:10EDD00010BD0000EC270020002200EB8003114949
:10EDE00001F8232000EB800301EB83014A8002221B
:10EDF00000EB80030B4901EB83018A60002200EBEA
:10EE00008003084901EB8301CA6000EB80030549D8
:10EE100001EB83010A6100EB8003024901EB8301EE
:10EE20008A807047F027002010B50848007800EB72
:10EE300080020648001D00EB82010020FEF790FCD6
:10EE400000F006F8002002F0BDFF10BDEC27002006
:10EE500010B509490878FFF7BFFF07484078401E02
:10EE60000549487008460078401CC0B208700A285E
:10EE700001D10020087010BDEC2700202DE9F047DB
:10EE800082461F480068002836D01D480068056883
:10EE900002F052FD07461B4804682146384603F03D
:10EEA00065FAC61C1848007808B902F057FDAE4252
:10EEB00001D2284600E03046044424F07F44204636
:10EEC00002F034FD02F038FD80463946404603F03A
:10EED0004DFA00F103093946204603F047FA81450F
:10EEE00009D902F029FD814602F020FD2F20FDF70F
:10EEF000CDFA03F003FC01E002F04EFDBDE8F0871F
:10EF0000002100200421002018210020F0B593B03A
:10EF100006460D460024524B0FCB0EAF0FC740F2F2
:10EF2000A550ADF84800B91C0EA863DF044600BF29
:10EF3000274637B100BF4BA232213846FEF78AFB85
:10EF400000BF00BF1C2107A8FDF707FB9DF81C00B0
:10EF500020F00200801C8DF81C009DF81C0020F0A1
:10EF6000080008308DF81C0000BF9DF8180020F044
:10EF70000F00401C8DF818009DF8180020F0F000DC
:10EF800010308DF8180000BF00BF9DF8190020F068
:10EF90000F00401C8DF819009DF8190020F0F000BA
:10EFA00010308DF8190000BF9DF81A0020F00600FF
:10EFB000801C8DF81A0006A80C909DF81C0020F00B
:10EFC000100010308DF81C00002005909DF81600F0
:10EFD00020F00600801C8DF8160000BF9DF814007C
:10EFE00020F00F00401C8DF814009DF8140020F054
:10EFF000F00010308DF8140000BF00BF9DF8150020
:10F0000020F00F00401C8DF815009DF8150020F031
:10F01000F00010308DF8150000BF14216846FDF790
:10F020009CFA12A8009005A801900C20ADF80C00E5
:10F03000ADF80800049668882B1D6A4607A9A2DF70
:10F04000044600BF274637B100BF06A25421384608
:10F05000FEF700FB00BF00BF002013B0F0BD0000B2
:10F06000242F02002E2E5C2E2E5C2E2E5C626C65F0
:10F070005F71696B5F6366672E63000001460888F5
:10F08000062808DB0888B0F5486F06DD08884FF6CB
:10F09000FF72904201D0072070474888062808DB9D
:10F0A0004888B0F5486F06DD48884FF6FF729042F9
:10F0B00001D00720F0E708884FF6FF72904208D091
:10F0C0004888904205D008884A88904201DD072090
:10F0D000E2E70020E0E72DE9F04106460D46144640
:10F0E00098462088801D404502D90C20BDE8F0815B
:10F0F0003046FFF7C3FF074600BF0FB13846F5E7BC
:10F1000000BF0520218868542088401C20801220E0
:10F11000218868542088401C20802288511930881A
:10F1200003F0ACFD218808442080228851197088A2
:10F1300003F0A4FD2188084420800020D6E70000C9
:10F1400010B5044600BF04A24FF487712046FEF7B5
:10F1500081FA00BF10BD00002E2E5C2E2E5C2E2EDC
:10F160005C6D61696E2E630030B587B01C21684606
:10F17000FDF7F3F9002000904FF4203001904FF498
:10F180007020029003208DF80C000020ADF80E00D6
:10F190008DF810000A4805900A4806906846FFF767
:10F1A00001FA044600BF25463DB100BF06A240F269
:10F1B00025112846FEF74EFA00BF00BF07B030BD4C
:10F1C000A50C020041F101002E2E5C2E2E5C2E2E8D
:10F1D0005C6D61696E2E630038B51B4800F0B2FCAF
:10F1E00020BB1A48007848B119484069E8B10020AE
:10F1F0000090174841696846884716E0154800782E
:10F2000010B91348456801E0114885680022294675
:10F2100011480068FEF74AFB044634B10C48806987
:10F2200018B10B4881692046884709E008484069C1
:10F2300030B101200090064841696846884700BF08
:10F2400000200249087038BDC4200020CC200020D6
:10F2500038270020C0200020782F020010B51A485F
:10F26000007800F0080058BB18480068401C174997
:10F2700008601748006818B1042003F02FF821E057
:10F2800000F072FC18B1022003F028F81AE01148CF
:10F29000006890B10C48007800F0010048B90A48B5
:10F2A000006840F0010008490860002003F016F8EB
:10F2B00008E0032003F012F804E002F0E3FF01E0AD
:10F2C00002F0F0FF10BD0000F4200020E420002038
:10F2D000DC200020E020002010B50B48007800F072
:10F2E000080070B90848007800F0020028B106480C
:10F2F000006840F0010004490860022002F0EEFFBF
:10F3000001E002F0CFFF10BDF420002001461448B8
:10F310000078144A127890421DD011480078401CA1
:10F320000F4A107010460078022801D1002010709A
:10F330000D480B4A127850F8220008600B4A086802
:10F3400012681044094A10601046006820F07F409F
:10F350001060012070470020086000BFFAE700003D
:10F36000102100201121002008210020042100206C
:10F3700010B50C48007800F0080078B90A48006819
:10F38000401C0949086000F0EFFB10B9FFF7E2FCF0
:10F3900006E00648007802F015FD01E000F0A2FD4D
:10F3A00010BD0000F4200020E4200020D820002020
:10F3B0000A48007806280ED10848001D007800F0A1
:10F3C0000F0040B905480830007800F0F000302800
:10F3D00001D1012070470020FCE70000E00F00F0A1
:10F3E00013480078062820D11148001D007800F04D
:10F3F0000F00D0B90E480830007800F0F000302837
:10F4000001D1012070470A480830007800F0F00070
:10F41000402801D10120F5E705480830007800F0C8
:10F42000F000502801D10120ECE70020EAE70000BD
:10F43000E00F00F00A48007806280ED10848001DA9
:10F44000007800F00F0040B905480830007800F05F
:10F45000F000302801D1012070470020FCE70000B7
:10F46000E00F00F013480078062820D11148001D55
:10F47000007800F00F00D0B90E480830007800F096
:10F48000F000302801D1012070470A480830007888
:10F4900000F0F000402801D10120F5E705480830D0
:10F4A000007800F0F000502801D10120ECE70020A6
:10F4B000EAE70000E00F00F00A48007806280ED1C5
:10F4C0000848001D007800F00F0040B905480830DA
:10F4D000007800F0F000302801D1012070470020B2
:10F4E000FCE70000E00F00F00A48007806280ED183
:10F4F0000848001D007800F00F0040B905480830AA
:10F50000007800F0F000302801D101207047002081
:10F51000FCE70000E00F00F00A48007806280ED152
:10F520000848001D007800F00F0040B90548083079
:10F53000007800F0F000502801D101207047002031
:10F54000FCE70000E00F00F0F0B5034600241FE0E8
:10F55000124E306806689E4203D90668F61A0660A5
:10F560001AE006689B1B06683444002606600B4EB2
:10F5700035680A4FC6693E60C66846B10E1926F066
:10F580007F464660C66886601668C661156000BF23
:10F59000024800680028DBD100BFF0BD0021002038
:10F5A00070B504460D462A460021204600F00EF8AC
:10F5B000A068401CA06070BD01468A68C868801AB7
:10F5C000704701468A68C868801A704710B583681A
:10F5D0000B44848823400468E35C137010BDC26848
:10F5E00083881A4003689954C268521CC2607047ED
:10F5F00030B504461088C01C984201D90C2030BD9B
:10F600000220158848551088401C1080012015885C
:10F6100048551088401C108015884C551088401C97
:10F6200010800020EBE738B500200090684601F01C
:10F630009BFC0446082C02D00CB1012038BD082CDC
:10F6400006D1684600F070F804460CB10020F5E7DA
:10F65000009808B10120F1E70020EFE710B504465B
:10F6600014B1112C08D100E00AE00648006840F00F
:10F6700008000449086003E02046FEF789F800BF4F
:10F6800000BF10BDF420002010B50D480068401CDC
:10F690000B490860B0F57A7F0DD00A48007802283F
:10F6A00004D00848007802F08DFB07E00648007897
:10F6B00002F014FE02E00D20FEF76AF810BD000013
:10F6C000E8200020D8200020D920002010B50A48CA
:10F6D0000078012804D0022808D0032809D102E0CC
:10F6E00002F09CFD06E0FFF743FE03E002F0EAFDB6
:10F6F00000E000BF00BF10BDD820002070B5044658
:10F70000204628DF0546FFF7A9FF70BD2DE9F0412F
:10F7100004460D46164632462946204629DF07464E
:10F72000FFF79CFFBDE8F081014609B9032070474F
:10F730000248406D08600020F9E700001C29002005
:10F7400070B52DED048B044620881038304951F8EF
:10F75000202030A10020FDF7BCFAA28831A10020B2
:10F76000FDF7B7FA2088102804D0112840D01228BD
:10F7700048D11EE0208BFCF76DFF9FED300B53EC62
:10F78000102BFCF7F5FEFCF772FF85B22A462DA17F
:10F790000020FDF79EFAE08B00EB800042002FA1D5
:10F7A0000020FDF796FAA28B32A10020FDF791FA16
:10F7B00029E02089FCF74EFF9FED200B53EC102B26
:10F7C000FCF7D6FEFCF753FF85B22A461DA10020A8
:10F7D000FDF77FFAE08900EB800042001FA10020C6
:10F7E000FDF777FAA28923A10020FDF772FA0AE05B
:10F7F000207A1238244951F8202024A10020FDF756
:10F8000068FA00E000BF00BFBDEC048B70BD0000D3
:10F81000282100200A474150204576743A2025735C
:10F820000000000009436F6E6E2068616E646C65B5
:10F830003A20307825233032780A0000000000009A
:10F840000000F43F094D494E5F434F4E4E5F494E15
:10F8500054455256414C3A2025640A0009434F4E04
:10F860004E5F5355505F54494D454F55543A2025EE
:10F87000640A000009534C4156455F4C4154454EC3
:10F8800043593A2025640A00CC2100200925730A37
:10F89000000000003EB500BF9DF8000020F00F0002
:10F8A000401C00909DF8000020F0F0001030009007
:10F8B00000BF062216A168467CDF044600BF25462D
:10F8C00035B100BF14A2D9212846FDF7C3FE00BF01
:10F8D00000BF0020019002900620ADF80400ADF8B2
:10F8E00006000020ADF808004FF4C870ADF80A001B
:10F8F00001A87ADF044600BF254635B100BF06A245
:10F90000E3212846FDF7A6FE00BF00BF3EBD000074
:10F9100042726F626F7400002E2E5C2E2E5C2E2EB3
:10F920005C6D61696E2E63002DE9F047064611207B
:10F93000142214E0014601231C4600252F46AC4644
:10F9400043EA440848EA850848EA072848EA0C4997
:10F95000DFF82C8048F8219000BF00BF401C904287
:10F96000E8D900BF112001F071F8122001F06EF803
:10F97000132001F06BF8142001F068F8BDE8F0875F
:10F980000007005010B51648007800F0080018BBBA
:10F9900000F016F960B100201249086010480068B4
:10F9A00040F001000E490860002002F097FC15E0CD
:10F9B00000F0DAF830B100200A490860022002F0B5
:10F9C0008DFC0BE00848006818B1032002F086FCAB
:10F9D00004E002F057FC01E002F064FC10BD0000FE
:10F9E000F4200020DC200020E0200020F8B50746AD
:10F9F0000D46012D29D1012014490870052600BFAC
:10FA0000134801F0C9FB044600BF74B111A10020E6
:10FA1000FDF752F9272311A2164900200094FDF7A3
:10FA200058F915A10020FDF747F900BF24B1301E99
:10FA3000A6F10101CEB2E3DC00BF0548027810A1B7
:10FA40000020FDF746F900BF00BFF8BD962000205A
:10FA5000952000201B5B313B33316D002E2E5C2E38
:10FA60002E5C2E2E5C71696B5F6472765F6D632E07
:10FA700063000000F82F02001B5B323B33376D0040
:10FA800051696B2070696E206572726F723A202521
:10FA9000640A0000F8B52548007800B9F8BD24488C
:10FAA000006808B9012000E00020054621480068F0
:10FAB00008B9012000E00020064600BF9DB9684655
:10FAC00052DF0446052C01D101250BE034B100BF03
:10FAD000194A93212046FDF7BDFD03E01449009823
:10FAE0000968884700BFCEB914480088009069466D
:10FAF0001348006861DF0446052C01D101260CE0A3
:10FB000034B100BF0C4AB2212046FDF7A3FD04E04A
:10FB10000B48006807490968884700BF0DB106B166
:10FB200000E0CBE700BF00BFB8E700006022002084
:10FB3000702200206C2200207C3702006822002006
:10FB40006422002001464888064A1288904206DB5B
:10FB50004888044A5288904201DC01207047002006
:10FB6000FCE70000B82000202DE9F04111480078A2
:10FB700000EB80010F48001D00EB8105EF6801F0EC
:10FB800018FA69883944AA881144491EB1FBF0F675
:10FB900009480068B04206D307480068B04204D163
:10FBA0000648006808B9012400E000242046BDE8AA
:10FBB000F0810000EC270020E4200020E02000205D
:10FBC0002DE9F0410F48007800EB80010D48001D41
:10FBD00000EB8105EE6801F0ECF969883144AA88F0
:10FBE0001144491EB1FBF0F70748006828B10748E7
:10FBF0000068B84201D1012400E000242046BDE89D
:10FC0000F0810000EC270020E0200020E42000200C
:10FC100030B504461088C01C984201D90C2030BD74
:10FC20000220158848551088401C10801C2015881B
:10FC300048551088401C1080012C06D0022C08D09A
:10FC4000032C0AD0042C10D10BE000201588485555
:10FC50000DE001201588485509E002201588485517
:10FC600005E003201588485501E00720D7E700BFCD
:10FC70001088401C10800020D1E700002DE9F041E1
:10FC80002148D0F80080214806782FE020480068FD
:10FC900000EBC604257825E005EB4501606800EB24
:10FCA000C107681CC5B2A078A84200D100253878E9
:10FCB000022802D0032812D103E0786802F040FC49
:10FCC0000EE007E010490868002101740E4AC1697E
:10FCD000116000BF0C4800680028F3D100E000BFAD
:10FCE00000BF00BF6078A842D6D100BF301EA6F189
:10FCF0000101CEB2CAD104480068404502D00120BB
:10FD0000BDE8F0810020FBE700210020F820002062
:10FD1000FC2000202DE9F04706463B48D0F8009033
:10FD20003A48077861E03A48006800EBC70555E0BB
:10FD300016B13446E66923E02A7802EB420269688C
:10FD400001EBC2002978491C29702978AA789142D0
:10FD500001D10021297044680178012901D1217C59
:10FD600001B13BE081686160C168A1600169E16047
:10FD70004169A1612749097809B10021616000BF8B
:10FD8000254960680968401A20F07F40234988426D
:10FD900008D221496068096802F0E8FAA1680844BD
:10FDA000206010E01C486168006802F0DFFA8046BD
:10FDB000A068404504D9A068A0EB0800206001E0DD
:10FDC0000020206000BF00206060A060012020743F
:10FDD0000020E061204602F07FFB00BF002EA7D18B
:10FDE000287869788842A3D100BF381EA7F10101A5
:10FDF000CFB298D104480068484502D00120BDE840
:10FE0000F0870020FBE7000000210020F820002000
:10FE1000FC2000201921002004210020FFFF7F008A
:10FE200008B51DA10020FCF747FF00BF1CA21FA1C1
:10FE30000020FCF74EFF00BF4FF4C87000F083F9BC
:10FE400001F00EFA0021032001F038FB204801F0F8
:10FE50003DFA02F059FC6846FFF766FDFEF78CFD9F
:10FE6000FFF718FDFDF7A8FB01F07AFFFFF77CF91B
:10FE7000FDF72AFE0320FEF733F9044600BF2546AE
:10FE80003DB100BF13A24FF403712846FDF7E2FB1A
:10FE900000BF00BF00BFFEE71B5B323B33376D0086
:10FEA00031313A35303A3133000000001B5B324AC1
:10FEB0001B5B3B4842726F626F742120436F646525
:10FEC00020436F6D70696C656420402025730A00C3
:10FED000922200202E2E5C2E2E5C2E2E5C6D6169EF
:10FEE0006E2E630010B50548006820F00800034935
:10FEF00008600348007801F065FF10BDF420002081
:10FF0000D82000202DE9F04105460E4614469846BB
:10FF1000A888871C2088801C3844404502D90C20C2
:10FF2000BDE8F081FE2F01D90C20F9E7781C21886B
:10FF300070542088401C2080FF2021887054208825
:10FF4000401C208022889119288802F097FE218881
:10FF500008442080A88800280DDDA86808B907207B
:10FF6000DEE7AA8823889819A968FCF7DDFA2088BB
:10FF7000A988084420800020D2E70000F0B593B0A3
:10FF800005460024374B0FCB0EAE0FC64EF65E2053
:10FF9000ADF84800B11C0EA863DF044600BF26463A
:10FFA00036B100BF30A234213046FDF753FB00BF0D
:10FFB00000BF1C2107A8FCF7D0FA9DF81C0020F018
:10FFC00008008DF81C009DF81C0020F00200801C29
:10FFD0008DF81C009DF81C0020F0100010308DF8EA
:10FFE0001C00002006909DF81A0020F00600801CDE
:10FFF0008DF81A0000BF9DF8180020F00F00401C7B
:020000040002F8
:100000008DF818009DF8180020F0F00010308DF8E1
:10001000180000BF0227142101A8FCF79EFA12A8BD
:10002000019006A802900220ADF81000ADF80C0077
:1000300000200090CDF814D0688805F10C0301AAC7
:1000400007A9A2DF044600BF264636B100BF06A2BC
:1000500052213046FDF7FEFA00BF00BF002013B06A
:10006000F0BD0000442F02002E2E5C2E2E5C2E2EA2
:100070005C626C655F71696B5F6D6F746F722E632C
:10008000000000002DE9F84F05460F46144698463B
:100090002878012804D1687810B90720BDE8F88FC6
:1000A0002088801C404508D82878012807D120885E
:1000B000801C69780844404501D90C20EEE720886F
:1000C000A8EB0000801E86B200962188891CC81902
:1000D00069467DDF814600BFB9F1000F01D0484677
:1000E000DCE700BF2878022806D1BDF80000B04246
:1000F00002DC4FF0090A0BE04FF0080A28780128CB
:1001000005D16878B04202DC6878009000E0009683
:10011000BDF80000FE2801D90C20BFE7BDF80000A3
:10012000401C218878542088401C2080208807F8B3
:1001300000A02088401C20802088BDF800100844C2
:1001400020800020AAE701B506E00098401E00903C
:1001500040F2E730FCF75EF900980028F5D108BDC1
:1001600070B50B4601461A46002907DA5407260ED9
:10017000104C01F00F052D1F665503E05407250EA6
:100180000D4C655400BF00BF00F01F0201219140DB
:100190000A4A440942F8241000BF00BF00F01F02C1
:1001A000012191404209920002F1E022C2F80011BF
:1001B00000BF70BD18ED00E000E400E080E200E068
:1001C0002DE9F04705460E46284600F021FEF8B11D
:1001D0002846FEF7ADFC083824490F5CBC11032CFF
:1001E0000BD100BF224800680121A940084008B196
:1001F000032000E00220804605E0012C01D102200E
:1002000000E0032080464146284600F005FC2AE035
:10021000284600F009FE30B32846FEF789FC044664
:10022000A00000F5807087B22046124951F82010D6
:1002300041F001020F4941F8202000BF384600F08C
:1002400023FC7EB12846FEF773FC8146FEF728FCAE
:100250008046B8F1000F04D0012101FA04F000F04B
:100260002DFC00BF00BFBDE8F0870000C4270020C0
:1002700010050050106500402DE9FC4704460E466D
:1002800017464FF00008204600F0B4FD10B14FF0C3
:10029000080851E0F27839462046FEF709FC054689
:1002A000681C002845D0B07860B100BFA10001F102
:1002B000A041D1F8001721F00200214941F82400A3
:1002C00000BF0CE096F80190002000904B460246DB
:1002D00001460190204600F061FB00BF00BFF078AE
:1002E000D0B13078174951F82510174A1140154AF6
:1002F00042F82510114651F825104FF4F85202EA41
:1003000004224FF4403303EA00431A4311430D4AD9
:1003100042F8251000BF0EE0A5F108000B49085C6B
:10032000317840EA811042B2A5F1080007490A5429
:1003300001E04FF0040800BF4046BDE8FC87000024
:100340000007005010650040FFE0FCFFC4270020BC
:1003500010B5134890F8540008B1082010BD0024CF
:1003600004E0204600F070FD601CC4B2202CF8DBD5
:10037000002404E02046FEF783FB601CC4B20C2C72
:10038000F8DB06210846FFF7EBFE4FF0004000F0D7
:1003900095FB0120024981F854000020DEE70000AF
:1003A0007427002070B504460D46022000F0E4FBDF
:1003B0001E4890F8270001281ED11C48C06820B1B3
:1003C000022000F0DFFB112070BD1848C460858258
:1003D00000BF4FF4807000F0BFFB0028F9D04FF44D
:1003E000807000F0C3FB2946204600F06DFB022020
:1003F00000F0C8FB0020E7E7022000F0C3FB01206B
:100400000A4981F827000846446005810020C86039
:100410002946204600F058FB4FF4807000F0A6FB00
:10042000002000F0B5FB0020CEE70000D02800201F
:1004300070B505460C46134890F82700012801D1F5
:10044000112070BD0F48163010F8150030B90D4856
:1004500090F82800401C0B4981F82800A179094830
:10046000163000F81510E17900EB45004170214687
:10047000284600F031FBE279A179284600F060FBC4
:100480000020DEE7D028002070B504460D461B484A
:1004900090F8260008B1082070BD0DB90720FBE7D1
:1004A00004B9174C1548056020781649086000BF4C
:1004B0006078091D086000BF0120104981F82600FE
:1004C000002081F8270081F8280008616FF00040C3
:1004D00000F052FB4FF4827000F048FBA178072037
:1004E000FFF73EFE022000F04DFB00BF0120054952
:1004F000F039086000BF0020CEE70000D0280020BF
:10050000C42F0200F075004010B50024054890F893
:10051000270008B9112402E0042000F039FB20462E
:1005200010BD0000D028002070B504460D463148AB
:10053000C07E08B1082070BD04B92F4C607F2D49E2
:1005400008772046FDF70CFB2A48456029492069B9
:1005500008600846406880B3267F0846007FC0B127
:100560004FF48871254800F052FB4FF490712348F6
:1005700000F04DFB4FF49271204800F048FB4FF41F
:10058000A2711E4800F043FB1D491C4800F04BFBC4
:100590000DE04FF48E71194800F00DFB4FF4A2717D
:1005A000164800F008FB1749144800F00FFB3146CD
:1005B0000220FFF7D5FD00BF00BF00BF0D48007F40
:1005C00028B100BF08201049086000BF05E000BF47
:1005D00004200D49086000BF00BF00BF002005498E
:1005E000C875087688750120C8760020887600BF17
:1005F000A1E70000CC2700207C2F02000020004053
:1006000010030200800002000025004070B504467F
:100610000D462848007F30B1200C0004B0F1005F87
:1006200001D0102070BD00262248406868B12148E2
:10063000007F28B14FF404711F4800F0F1FA04E084
:100640004FF401711C4800F0BEFA1A48C07DB0B1E9
:100650001848007E90B11748406868B11548007F7F
:1006600028B14FF40471144800F0DDFA04E04FF4AF
:100670000171114800F0AAFA1120D3E701263EB912
:100680000C48C575C46000200A494876087602E027
:100690000848046105760748007F28B1324629469C
:1006A000204600F075F8BDE732462946204600F0A6
:1006B00015F8B7E7CC2700200020004010B5064809
:1006C000007F38B90448807E20B901F0CBF90120C1
:1006D0000149887610BD0000CC2700202DE9F047A5
:1006E0008046894616462848807E10B90EB901F02A
:1006F000B9F92548406800283FD14FF4A27123483A
:1007000000F059FA00BF00BF4FF492711F4800F08B
:100710004BFA05464FF484711C4800F045FA074631
:100720004FF4A271194800F03FFA044617B90CB90A
:10073000002DE9D005B904B107E001F059F91248DC
:10074000C07D1149497E8842DDDC00BF00200E4992
:10075000C87515B10320BDE8F0870CB10F20FAE78A
:100760000948807E20B10021084800F03BFA03E0F0
:100770000421064800F036FA04E04FF40171034802
:1007800000F024FA0020E6E7CC27002000200040FB
:100790002DE9F04704460D4690464FF488712648EF
:1007A00000F035FA4FF4A271234800F030FA2248E5
:1007B000C0F834454FF4A7610D5000BFB8F1000FE9
:1007C00003D1002100F037FA08E020201B49096816
:1007D0000143194AC2F8001200BF00BF1848406820
:1007E00018BB00BF4FF48871134800F009FA814626
:1007F0004FF4A271104800F003FA07464FF49271CB
:100800000D4800F0FDF90646B9F1000F02D10FB90D
:10081000002EE7D000200A49C87516B10320BDE8B4
:10082000F0870FB10F20FAE704E04FF4047102489B
:1008300000F0F9F90020F2E700200040002200401B
:10084000CC27002070B504460D460F48007F30B11C
:10085000200C0004B0F1005F01D0102070BD00F04A
:1008600093F808B11120F9E70748857584600020E6
:10087000054988820846007F10B100F04DF8EDE789
:1008800000F004F8EAE70000CC27002010B50024AF
:100890004FF48E711E4800F08EF908211C4800F0BC
:1008A000A1F901F0A9FF1B48406878BB12E000BF26
:1008B0004FF48E71164800F077F920B91548808AF8
:1008C000B0F5807FF4D11348808AB0F5807F01D0E5
:1008D00001F092FF0F48808A0E49897D8842E6DB4D
:1008E0000C48808AB0F5807F01D10F240BE000BF57
:1008F0004FF48E71064800F057F90028F8D00C210B
:10090000034800F06FF9002002498875204610BDA9
:1009100000200040CC27002070B500264FF49071D5
:10092000174800F074F94FF4AC71154800F06FF9F6
:100930001348144B99689A7DC0F844154FF4A96385
:100940001A5000BF082100F076F90E484068A8B997
:1009500000BF4FF490710A4800F052F905464FF479
:10096000AC71074800F04CF904460DB9002CF0D0EA
:1009700004B10F2600200349887500BF304670BDC2
:1009800000200040CC2700200348807D08B10120D2
:1009900070470020FCE70000CC270020F0B5DDE91F
:1009A000054541EA420646EA830646EA042646EA47
:1009B0000547024E46F82070F0BD000000070050C9
:1009C000F0B5DDE9054541EA420646EA830646EA16
:1009D000042646EA0547024E46F82070F0BD0000A6
:1009E000000700507CB505460C46002000902346C9
:1009F0000246014601902846FFF7E2FF7CBD1CB588
:100A00000446002000900346012211460190204632
:100A1000FFF7D6FF1CBD0000074A52F8202022F441
:100A20004033054A42F8203052F8202042EA014380
:100A3000014A42F8203070470007005001218140F0
:100A4000014A1160704700000C05005001218140EF
:100A5000014A1160704700000805005001218140E3
:100A6000014A1160704700000805005001218140D3
:100A7000014A116070470000080500500146014816
:100A8000084470470060004038B504462046FFF730
:100A9000F5FF002101602046FFF7F0FF006800909D
:100AA00000BF38BD10B504462046FFF7E7FF0068D9
:100AB000012800D110BD0020FCE7000001490860BA
:100AC0007047000004630040024A1060121D11606C
:100AD000704700002C76004010B50A7802F003023F
:100AE0004B78302404EA03131A438B784FF4E06404
:100AF00004EA03231A43CB784FF4805404EA033307
:100B00001A430B794FF4E02404EA03431A434B7968
:100B10004FF4801404EA03531343084A02EB001213
:100B200093608A79CB79054C04EB00146360034C25
:100B300004EB0014226000BF10BD000010750040DF
:100B4000044B03EB00135A60024B03EB00131960D4
:100B5000704700001075004001460348085808B16E
:100B6000012070470020FCE7007000400021014A8E
:100B700081507047007000400149086070470000D4
:100B8000087300400149086070470000047300408A
:100B90000121014A81507047007000400146D1F8A0
:100BA0008004C1F8800470470246505808B1012003
:100BB00070470020FCE7002242507047C0F808153B
:100BC000C0F810257047C0F808137047C0F8041328
:100BD00070470246D2F80403084008B1012070476C
:100BE0000020FCE7012242507047C0F80C15C0F805
:100BF000142570470146D1F88004C1F8800470477D
:100C00000246505808B1012070470020FCE700223E
:100C100042507047C0F808154FF4A2631A5070474D
:100C2000C0F808137047C0F804137047014640F23B
:100C30003C504058704701224250704740F20C53DC
:100C4000195040F214531A50704710B5044614B1AD
:100C5000032C03D103E001F09DF800E000BF00BFCA
:100C600010BD000010B50446E0880C498988884210
:100C700002D0204600F0EEF82088102802D011287B
:100C800009D103E0A0880649088005E04FF6FF700F
:100C90000349088000E000BF00BF10BDB022002063
:100CA0008020002070B50546287880B93B2108488F
:100CB000008876DF044600BF26463EB100BF05A28D
:100CC00040F203113046FCF7C5FC00BF00BF70BD09
:100CD000802000202E2E5C2E2E5C2E2E5C6D6169F5
:100CE0006E2E630010B504460349A2680A60E068EE
:100CF0004860FEF771FA10BDC42000208A88428146
:100D00007047000010B50446A088084908800849CB
:100D1000A2690A60E0694860002006490870064838
:100D2000C08908B9FEF758FA10BD0000C2200020A3
:100D3000C4200020C0200020382700204FF6FF727A
:100D40004281704770B505464FF6FF70094908802B
:100D500000200949087009480068FCF7D3FD0446E3
:100D600034B10748806918B1054881692046884731
:100D700070BD0000C2200020C0200020782F02009B
:100D80003827002070B50546AC1D20881149C98957
:100D900088421DD1608902281AD100BF00BF217B83
:100DA000627B41EA0221084600F0010111B1FEF721
:100DB00013FA0DE008480068FCF7A4FD064636B1BA
:100DC0000448806918B1034881693046884700BFEC
:100DD00070BD000038270020782F02000246002155
:100DE00004E0505C08B101207047491C0629F8D383
:100DF0000020F9E7014605484056012202EBE07069
:100E000008B1012070470020FCE70000A427002063
:100E1000014604484056082801DB012070470020A5
:100E2000FCE70000A42700200146064840560028A1
:100E300005DB04484056082801DA012070470020ED
:100E4000FCE70000A4270020FF2201490A54704754
:100E5000A427002038B505462C88102C05D32F2C4C
:100E600003D82846FEF76CFC38E0502C16D36F2CC4
:100E700014D8502C08D1A87C0090EB8818A21DA192
:100E80000020FBF726FF29E028885038244951F834
:100E9000202024A10020FBF71CFF1FE0302C0BD3E7
:100EA0004F2C09D828883038214951F8202021A119
:100EB0000020FBF70EFF11E05CB10F2C09D8288849
:100EC000401E1F4951F820201EA10020FBF701FF02
:100ED00004E022461EA10020FBF7FBFE38BD000007
:100EE000424C455F47415454535F4556545F5752F7
:100EF0004954450047415454533A2025732C2068E7
:100F0000616E646C653A20307825233034782C206B
:100F1000646174613A20307825233032780A000009
:100F20006421002047415454533A202573000000A7
:100F30007C21002047415454433A2025730000008F
:100F400080210020434F4D4D4F4E3A202573000025
:100F5000556E646566696E6564206576743A203006
:100F60007825233032780A00014600BF0748007810
:100F700000F0040008B90820704700BF09B90E202E
:100F8000FAE70348407808600020F5E7F4200020E5
:100F9000EC27002010B54FF010204469601C20B1F0
:100FA00000F007F8B4FBF0F010BD4FF0805040693E
:100FB000FAE74FF08050006980B2704710B50446E0
:100FC0000E480078C0B10D480078042814D0022CD7
:100FD00002D0032C0ED102E0FEF778FB0BE00848AC
:100FE000007800F0080010B9FEF74EFB01E0FEF7B4
:100FF0006DFB00E000BF00BF10BD0000D820002046
:10100000F42000202DE9FC4106460C4600BF0120DB
:10101000014600221346174640EA410C4CEA820C76
:101020004CEA032C4CEA0748DFF87CC04CF82480DB
:1010300000BF00BF2046FFF711FDFFF789F9054605
:1010400000BF75B119A10020FBF736FE382319A2A5
:101050001E4900200095FBF73CFE1DA10020FBF778
:101060002BFE00BF1C48006801901C4A01A93046B5
:10107000FFF702F9054600BF75B10CA10020FBF790
:101080001BFE3C230BA2114900200095FBF721FE1B
:101090000FA10020FBF710FE00BF01213046FFF733
:1010A0008FF80020BDE8FC81000700501B5B313B3E
:1010B00033316D002E2E5C2E2E5C2E2E5C71696BF2
:1010C0005F6472765F6D632E63000000F82F02008C
:1010D0001B5B323B33376D00742F0200EDF90100CA
:1010E0002DE9FC410646374600251CE0E8B201A97F
:1010F00000F060F8044600BF7CB10DA10020FBF7B2
:10110000DBFD40F20F130CA2114900200094FBF705
:10111000E0FD10A10020FBF7CFFD00BF9DF804000B
:1011200038707F1C6D1C0B2DE0DD0020BDE8FC81BC
:101130001B5B313B33316D002E2E5C2E2E5C2E2E30
:101140005C71696B5F6472765F6D632E6300000093
:10115000F82F02001B5B323B33376D002DE9F04165
:1011600007460D463846FCF769FC064616B1304680
:10117000BDE8F081074C00BF2846FCF7DDFB10B14D
:10118000601E041EF8D114B94FF60170F0E700207C
:10119000EEE70000400D030010B504462146822012
:1011A000FFF7DCFF10BD10B5044621468120FFF794
:1011B000D5FF10BDF8B507460E468320FCF73EFC70
:1011C000044600BF74B11AA10020FBF775FDDA23B5
:1011D00019A21F4900200094FBF77BFD1DA10020F0
:1011E000FBF76AFD00BF3846FCF728FC044600BF49
:1011F00074B10FA10020FBF75FFDDC230EA21449A0
:1012000000200094FBF765FD12A10020FBF754FDC0
:1012100000BF124D00BF3046FCF78EFB10B1681EB8
:10122000051EF8D115B94FF60170F8BD0020FCE796
:101230001B5B313B33316D002E2E5C2E2E5C2E2E2F
:101240005C71696B5F6472765F6D632E6300000092
:10125000F82F02001B5B323B33376D00400D03005B
:101260001CB51C201D2103230422CDE900100C49CC
:101270000C4800F0CBF9044600BF7CB10AA1002065
:10128000FBF71AFD4FF4F67309A20D4900200094F4
:10129000FBF71FFD0BA10020FBF70EFD00BF1CBDDF
:1012A00000509D00922200201B5B313B33316D00CA
:1012B0002E2E5C2E2E5C2E2E5C6D61696E2E6300D0
:1012C000F82F02001B5B323B33376D00F8B5044644
:1012D00000BF227B0EA10020FBF7FBFC00BF00BF7C
:1012E000627B0FA10020FBF7F4FC00BF254600261F
:1012F0000BE000BF287800902B7832460EA100202A
:10130000FBF7E7FC00BF6D1C761C0B2EF1DDF8BD72
:1013100046772049443A20307825233032780A0035
:101320004C617374206572726F723A203078252395
:101330003032780A0000000050726D20253032648F
:101340003A2030782523303278202825303264291D
:101350000A00000070B506460D463046FCF76EFBED
:1013600004460CB1204670BD2846FCF767FB0446D6
:101370000CB12046F7E70020F5E7000038B5044639
:1013800094F90E007F2801DD7F20A07394F90F00EF
:101390007F2801DD7F21E17394F90E0010F17F0FAA
:1013A00001DA8120A07394F90F0010F17F0F01DAA8
:1013B0008121E17394F90E00002817DBA17B8820BE
:1013C000FFF7C8FF054600BF7DB131A10020FBF744
:1013D00073FC4FF4B37330A2354900200095FBF73E
:1013E00078FC34A10020FBF767FC19E0A07B4042A9
:1013F000C1B28A20FFF7AEFF054600BF7DB124A130
:101400000020FBF759FC40F26B1323A2284900206F
:101410000095FBF75EFC27A10020FBF74DFC00BF09
:1014200094F90F00002817DBE17B8C20FFF792FF77
:10143000054600BF7DB116A10020FBF73DFC4FF42F
:10144000B97315A21A4900200095FBF742FC19A1B7
:101450000020FBF731FC19E0E07B4042C1B28E2056
:10146000FFF778FF054600BF7DB109A10020FBF71B
:1014700023FC40F2771308A20D4900200095FBF7EA
:1014800028FC0CA10020FBF717FC00BF002038BD92
:101490001B5B313B33316D002E2E5C2E2E5C2E2ECD
:1014A0005C71696B5F6472765F6D632E6300000030
:1014B000F82F02001B5B323B33376D002DE9FC41F6
:1014C00007460E468420FCF7B9FA044600BF74B103
:1014D00042A10020FBF7F0FBEB2342A2474900208A
:1014E0000094FBF7F6FB46A10020FBF7E5FB00BFED
:1014F0003846FCF7A3FA044600BF74B137A10020B8
:10150000FBF7DAFBEC2337A23C4900200094FBF701
:10151000E0FB3BA10020FBF7CFFB00BF3046FCF710
:101520008DFA044600BF74B12CA10020FBF7C4FB68
:10153000ED232CA2314900200094FBF7CAFB30A117
:101540000020FBF7B9FB00BF5520FCF777FA0446F3
:1015500000BF74B121A10020FBF7AEFBEE2321A256
:10156000264900200094FBF7B4FB25A10020FBF7DF
:10157000A3FB00BF2A20FCF761FA044600BF74B148
:1015800016A10020FBF798FBEF2316A21B490020B1
:101590000094FBF79EFB1AA10020FBF78DFB00BF18
:1015A000194D00BF01A8FCF7C7F910B1681E051E50
:1015B000F8D11DB94FF60170BDE8FC819DF804001B
:1015C000012802D14FF60270F6E79DF804000228C8
:1015D00002D14FF60370EFE70020EDE71B5B313BD4
:1015E00033316D002E2E5C2E2E5C2E2E5C71696BBD
:1015F0005F6472765F6D632E63000000F82F020057
:101600001B5B323B33376D00400D03002DE9F84F73
:101610000746884691469A46DDE90A65524649469C
:10162000404600F0DBF8044600BF74B155A100202D
:10163000FBF742FB7E2355A25A4900200094FBF79A
:1016400048FB59A10020FBF737FB00BF2946304675
:10165000FFF7D8FC044600BF74B14AA10020FBF795
:101660002BFB822349A24F4900200094FBF731FB5A
:101670004DA10020FBF720FB00BF0520FEF763FD16
:1016800012213846FAF769FF00BF49480068F04068
:1016900000F00100002844D0FF20464908700846A9
:1016A000FFF77AFD044600BF74B136A10020FBF7B6
:1016B00003FB8D2335A23B4900200094FBF709FB77
:1016C00039A10020FBF7F8FA00BF3A480078787398
:1016D00000BF3848027838A10020FBF7FAFA00BFB3
:1016E00034480078FF2804D03248007800F0100019
:1016F000B8B100BF0120A8402D49091F086000BFF4
:101700003220FEF720FD2846FFF7A8F900BF294840
:1017100002782EA10020FBF7DCFA00BF6420FEF760
:1017200012FD3846FFF7DCFC044600BF74B115A17A
:101730000020FBF7C1FA9D2314A21A49002000944F
:10174000FBF7C7FA18A10020FBF7B6FA00BF07F1B4
:101750000C00FFF728FD044600BF74B109A100206A
:10176000FBF7AAFAA02309A20E4900200094FBF778
:10177000B0FA0DA10020FBF79FFA00BF0020BDE8E2
:10178000F88F00001B5B313B33316D002E2E5C2E39
:101790002E5C2E2E5C71696B5F6472765F6D632EBA
:1017A00063000000F82F02001B5B323B33376D00F3
:1017B00010050050952000204572726F72206F6EE8
:1017C00020696E69743A2025640A000052657365C9
:1017D00074696E672051696B0A000000F0B587B02C
:1017E00005460E4614460020049005900690F0B27F
:1017F0008DF81000E0B28DF81100069500BF0C487E
:101800000090012001900B4802904FF480700390EB
:101810000223094A694604A8FCF7AAF8074600BF54
:1018200040F20331054840F82410384607B0F0BDB7
:101830009720002034250020952802000007005042
:101840002DE9F8438046894647464D46002629E063
:1018500038782978884221D000BF287800903B78DA
:1018600032461EA10020FBF734FA00BF297830462B
:10187000FFF724FE044600BF7CB121A10020FBF746
:101880001BFA40F2351320A2254900200094FBF7F3
:1018900020FA24A10020FBF70FFA00BF7F1C6D1C6B
:1018A000701CC6B20B2ED3DD4046FFF719FC044670
:1018B00000BF7CB112A10020FBF7FEF940F23B1300
:1018C00011A2174900200094FBF703FA15A100208C
:1018D000FBF7F2F900BF0020BDE8F88350726D20DD
:1018E00025303264207570643A206F6C643A20258C
:1018F0003032642C206E65773A20253032640A003D
:101900001B5B313B33316D002E2E5C2E2E5C2E2E58
:101910005C71696B5F6472765F6D632E63000000BB
:10192000F82F02001B5B323B33376D000149086022
:1019300070470000401501400148006870470000F2
:101940000415014010B50446034804600621112027
:10195000FBF760F810BD00000815014010B54FF40A
:1019600080300A4908600A49C1F804031120FBF7D6
:101970002DF81120FBF736F80120054908602F20CB
:10198000FAF784FD01200349087010BD441301409B
:10199000001001401821002010B5112001218140C4
:1019A0000E4A430942F8231000BF4FF480300C491F
:1019B00008600C49C1F80803012048602F20FAF79D
:1019C00065FD0120074988600020074908602F2035
:1019D000FAF75CFD00200549087010BD80E100E0C9
:1019E000481301400010014004210020182100206C
:1019F00010B51048C07D40B94FF484710E48FFF710
:101A0000DAF800BF0D48006810BD4FF484710A4831
:101A1000FFF7D1F800BF09480068C0B20549C9689E
:101A2000044A527E88540348407E401C014948764F
:101A300000BFE9E7CC270020002000401825004027
:101A40007FB504460D4601208DF800008DF8084052
:101A50000195034801684268684690477FBD0000D1
:101A6000CC27002010B54FF492710648FFF7A3F879
:101A70004FF484710348FFF79EF800210148FFF7F7
:101A8000B1F810BD0020004010B504461249B1F96C
:101A90000010124A1288032313FB0210C11700EB37
:101AA0009171891009B20D4A11801046B0F90020D9
:101AB0000BA10020FBF70DF90B4801780078401CC2
:101AC000094A1070042906DB08480068FCF74CFC42
:101AD00000200549087010BD882000208A200020C1
:101AE0006164632025640A00902000208C2000207F
:101AF0001FB52048006803901F4903A8FEF7C4FCE7
:101B00001C49091D03C9CDE9010102208DF8060019
:101B100001208DF8070001A90020FEF789FC04468A
:101B200000BF74B115A10020FBF7C6F8AF2315A2C2
:101B3000194900200094FBF7CCF818A10020FBF70E
:101B4000BBF800BF01211748FEF72CFC044600BF7C
:101B500074B10AA10020FBF7AFF8B22309A20E4925
:101B600000200094FBF7B5F80CA10020FBF7A4F8C7
:101B700000BF1FBDF82E0200891A02001B5B313B1B
:101B800033316D002E2E5C2E2E5C2E2E5C626C6529
:101B90005F6261732E630000F82F02001B5B323B13
:101BA00033376D008820002008B5014604480090B6
:101BB0000098884201D0002008BD0020FCE700000A
:101BC0008020002010B501460846202808DA0122AE
:101BD00082402C4B1A400AB101220EE000220CE098
:101BE000402809DAA0F12002012303FA02F20AB127
:101BF000012202E0002200E0012212B942F20100BB
:101C000010BD0A46002A06DA1F4B02F00F04241FFB
:101C10001B5D5B0902E01D4B9B5C5B0918460828B5
:101C200001D3002209E028B1012803D0042801D003
:101C3000052801D1002200E0012212B942F202007F
:101C4000DEE71348806868B14809114A52F820005D
:101C500001F01F0301229A4010434A090C4B43F83C
:101C600022000CE000BF01F01F02012090404A0951
:101C7000920002F1E022C2F8000100BF00BF002084
:101C8000BEE70000FC06FFBC18ED00E000E400E049
:101C9000A42D002030B504461088C01C984201D9FC
:101CA0000C2030BD0220158848551088401C10803B
:101CB0001120158848551088401C108010880C543D
:101CC0001088401C10800020EBE72DE9F047074604
:101CD0000E4614469A46B86A10B90720BDE8F08748
:101CE0004FF0000836E008EB4801B86A00EB8105C8
:101CF000A88800F10209B9F1FE0F01D90C20EDE727
:101D000009F10100218870542088401C2080162091
:101D1000218870542088401C2080228891192888AE
:101D200000F0ACFF218808442080A88800280DDD41
:101D3000A86808B90720D1E7AA8823889819A96854
:101D4000FAF7F2FB2088A9880844208008F10100F6
:101D500000F0FF0897F82C004045C4DC0020BDE7E8
:101D600010B507490748FCF759FD0748FCF7BEFDC9
:101D70000648FCF755FB0648FCF7D2FB10BD0000F7
:101D8000A422002092220020B022002078220020ED
:101D90008622002070B53CDF044600BF25463DB1D9
:101DA00000BF04A240F241112846FBF753FC00BFDC
